{
  "_format": "hh-sol-artifact-1",
  "contractName": "AgentOnramp",
  "sourceName": "contracts/AgentOnramp.sol",
  "abi": [
    {
      "inputs": [
        {
          "internalType": "address",
          "name": "_usdc",
          "type": "address"
        }
      ],
      "stateMutability": "nonpayable",
      "type": "constructor"
    },
    {
      "inputs": [],
      "name": "ECDSAInvalidSignature",
      "type": "error"
    },
    {
      "inputs": [
        {
          "internalType": "uint256",
          "name": "length",
          "type": "uint256"
        }
      ],
      "name": "ECDSAInvalidSignatureLength",
      "type": "error"
    },
    {
      "inputs": [
        {
          "internalType": "bytes32",
          "name": "s",
          "type": "bytes32"
        }
      ],
      "name": "ECDSAInvalidSignatureS",
      "type": "error"
    },
    {
      "inputs": [
        {
          "internalType": "address",
          "name": "owner",
          "type": "address"
        }
      ],
      "name": "OwnableInvalidOwner",
      "type": "error"
    },
    {
      "inputs": [
        {
          "internalType": "address",
          "name": "account",
          "type": "address"
        }
      ],
      "name": "OwnableUnauthorizedAccount",
      "type": "error"
    },
    {
      "anonymous": false,
      "inputs": [
        {
          "indexed": true,
          "internalType": "uint256",
          "name": "bountyId",
          "type": "uint256"
        },
        {
          "indexed": true,
          "internalType": "address",
          "name": "agent",
          "type": "address"
        },
        {
          "indexed": false,
          "internalType": "uint256",
          "name": "reward",
          "type": "uint256"
        }
      ],
      "name": "BountyClaimed",
      "type": "event"
    },
    {
      "anonymous": false,
      "inputs": [
        {
          "indexed": true,
          "internalType": "uint256",
          "name": "bountyId",
          "type": "uint256"
        },
        {
          "indexed": false,
          "internalType": "string",
          "name": "description",
          "type": "string"
        },
        {
          "indexed": false,
          "internalType": "uint256",
          "name": "reward",
          "type": "uint256"
        },
        {
          "indexed": false,
          "internalType": "enum AgentOnramp.BountyType",
          "name": "bountyType",
          "type": "uint8"
        }
      ],
      "name": "BountyCreated",
      "type": "event"
    },
    {
      "anonymous": false,
      "inputs": [
        {
          "indexed": true,
          "internalType": "address",
          "name": "wallet",
          "type": "address"
        },
        {
          "indexed": false,
          "internalType": "string",
          "name": "githubUsername",
          "type": "string"
        }
      ],
      "name": "IdentityRegistered",
      "type": "event"
    },
    {
      "anonymous": false,
      "inputs": [
        {
          "indexed": true,
          "internalType": "address",
          "name": "wallet",
          "type": "address"
        },
        {
          "indexed": false,
          "internalType": "string",
          "name": "githubUsername",
          "type": "string"
        }
      ],
      "name": "IdentityVerified",
      "type": "event"
    },
    {
      "anonymous": false,
      "inputs": [
        {
          "indexed": true,
          "internalType": "address",
          "name": "previousOwner",
          "type": "address"
        },
        {
          "indexed": true,
          "internalType": "address",
          "name": "newOwner",
          "type": "address"
        }
      ],
      "name": "OwnershipTransferred",
      "type": "event"
    },
    {
      "anonymous": false,
      "inputs": [
        {
          "indexed": true,
          "internalType": "address",
          "name": "sponsor",
          "type": "address"
        },
        {
          "indexed": false,
          "internalType": "uint256",
          "name": "amount",
          "type": "uint256"
        }
      ],
      "name": "SponsorDeposit",
      "type": "event"
    },
    {
      "anonymous": false,
      "inputs": [
        {
          "indexed": true,
          "internalType": "address",
          "name": "agent",
          "type": "address"
        },
        {
          "indexed": false,
          "internalType": "uint256",
          "name": "completedBounties",
          "type": "uint256"
        }
      ],
      "name": "SponsorRelayApproved",
      "type": "event"
    },
    {
      "inputs": [
        {
          "internalType": "uint256",
          "name": "",
          "type": "uint256"
        }
      ],
      "name": "bounties",
      "outputs": [
        {
          "internalType": "string",
          "name": "description",
          "type": "string"
        },
        {
          "internalType": "uint256",
          "name": "reward",
          "type": "uint256"
        },
        {
          "internalType": "bool",
          "name": "active",
          "type": "bool"
        },
        {
          "internalType": "enum AgentOnramp.BountyType",
          "name": "bountyType",
          "type": "uint8"
        },
        {
          "internalType": "bytes32",
          "name": "expectedProofHash",
          "type": "bytes32"
        }
      ],
      "stateMutability": "view",
      "type": "function"
    },
    {
      "inputs": [
        {
          "internalType": "uint256",
          "name": "",
          "type": "uint256"
        },
        {
          "internalType": "address",
          "name": "",
          "type": "address"
        }
      ],
      "name": "bountyClaimed",
      "outputs": [
        {
          "internalType": "bool",
          "name": "",
          "type": "bool"
        }
      ],
      "stateMutability": "view",
      "type": "function"
    },
    {
      "inputs": [
        {
          "internalType": "address",
          "name": "agent",
          "type": "address"
        }
      ],
      "name": "canSponsor",
      "outputs": [
        {
          "internalType": "bool",
          "name": "",
          "type": "bool"
        }
      ],
      "stateMutability": "view",
      "type": "function"
    },
    {
      "inputs": [
        {
          "internalType": "uint256",
          "name": "bountyId",
          "type": "uint256"
        },
        {
          "internalType": "bytes",
          "name": "proof",
          "type": "bytes"
        }
      ],
      "name": "claimBounty",
      "outputs": [],
      "stateMutability": "nonpayable",
      "type": "function"
    },
    {
      "inputs": [
        {
          "internalType": "address",
          "name": "",
          "type": "address"
        }
      ],
      "name": "completedBountyCount",
      "outputs": [
        {
          "internalType": "uint256",
          "name": "",
          "type": "uint256"
        }
      ],
      "stateMutability": "view",
      "type": "function"
    },
    {
      "inputs": [
        {
          "internalType": "string",
          "name": "description",
          "type": "string"
        },
        {
          "internalType": "uint256",
          "name": "reward",
          "type": "uint256"
        },
        {
          "internalType": "enum AgentOnramp.BountyType",
          "name": "bountyType",
          "type": "uint8"
        },
        {
          "internalType": "bytes32",
          "name": "expectedProofHash",
          "type": "bytes32"
        }
      ],
      "name": "createBounty",
      "outputs": [],
      "stateMutability": "nonpayable",
      "type": "function"
    },
    {
      "inputs": [
        {
          "internalType": "uint256",
          "name": "bountyId",
          "type": "uint256"
        }
      ],
      "name": "deactivateBounty",
      "outputs": [],
      "stateMutability": "nonpayable",
      "type": "function"
    },
    {
      "inputs": [
        {
          "internalType": "address",
          "name": "agent",
          "type": "address"
        }
      ],
      "name": "getAgentStatus",
      "outputs": [
        {
          "internalType": "string",
          "name": "githubUsername",
          "type": "string"
        },
        {
          "internalType": "bool",
          "name": "verified",
          "type": "bool"
        },
        {
          "internalType": "uint256",
          "name": "completedBounties",
          "type": "uint256"
        },
        {
          "internalType": "bool",
          "name": "eligibleForRelay",
          "type": "bool"
        }
      ],
      "stateMutability": "view",
      "type": "function"
    },
    {
      "inputs": [],
      "name": "getBountyCount",
      "outputs": [
        {
          "internalType": "uint256",
          "name": "",
          "type": "uint256"
        }
      ],
      "stateMutability": "view",
      "type": "function"
    },
    {
      "inputs": [
        {
          "internalType": "string",
          "name": "",
          "type": "string"
        }
      ],
      "name": "githubToWallet",
      "outputs": [
        {
          "internalType": "address",
          "name": "",
          "type": "address"
        }
      ],
      "stateMutability": "view",
      "type": "function"
    },
    {
      "inputs": [
        {
          "internalType": "address",
          "name": "",
          "type": "address"
        }
      ],
      "name": "identityVerified",
      "outputs": [
        {
          "internalType": "bool",
          "name": "",
          "type": "bool"
        }
      ],
      "stateMutability": "view",
      "type": "function"
    },
    {
      "inputs": [
        {
          "internalType": "address",
          "name": "",
          "type": "address"
        }
      ],
      "name": "isSponsor",
      "outputs": [
        {
          "internalType": "bool",
          "name": "",
          "type": "bool"
        }
      ],
      "stateMutability": "view",
      "type": "function"
    },
    {
      "inputs": [],
      "name": "minBountiesForRelay",
      "outputs": [
        {
          "internalType": "uint256",
          "name": "",
          "type": "uint256"
        }
      ],
      "stateMutability": "view",
      "type": "function"
    },
    {
      "inputs": [],
      "name": "owner",
      "outputs": [
        {
          "internalType": "address",
          "name": "",
          "type": "address"
        }
      ],
      "stateMutability": "view",
      "type": "function"
    },
    {
      "inputs": [
        {
          "internalType": "string",
          "name": "githubUsername",
          "type": "string"
        },
        {
          "internalType": "bytes",
          "name": "signature",
          "type": "bytes"
        }
      ],
      "name": "registerIdentity",
      "outputs": [],
      "stateMutability": "nonpayable",
      "type": "function"
    },
    {
      "inputs": [],
      "name": "renounceOwnership",
      "outputs": [],
      "stateMutability": "nonpayable",
      "type": "function"
    },
    {
      "inputs": [
        {
          "internalType": "uint256",
          "name": "_min",
          "type": "uint256"
        }
      ],
      "name": "setMinBountiesForRelay",
      "outputs": [],
      "stateMutability": "nonpayable",
      "type": "function"
    },
    {
      "inputs": [
        {
          "internalType": "address",
          "name": "",
          "type": "address"
        }
      ],
      "name": "sponsorBalance",
      "outputs": [
        {
          "internalType": "uint256",
          "name": "",
          "type": "uint256"
        }
      ],
      "stateMutability": "view",
      "type": "function"
    },
    {
      "inputs": [
        {
          "internalType": "uint256",
          "name": "amount",
          "type": "uint256"
        }
      ],
      "name": "sponsorDeposit",
      "outputs": [],
      "stateMutability": "nonpayable",
      "type": "function"
    },
    {
      "inputs": [
        {
          "internalType": "address",
          "name": "newOwner",
          "type": "address"
        }
      ],
      "name": "transferOwnership",
      "outputs": [],
      "stateMutability": "nonpayable",
      "type": "function"
    },
    {
      "inputs": [],
      "name": "usdc",
      "outputs": [
        {
          "internalType": "contract IERC20",
          "name": "",
          "type": "address"
        }
      ],
      "stateMutability": "view",
      "type": "function"
    },
    {
      "inputs": [
        {
          "internalType": "address",
          "name": "wallet",
          "type": "address"
        }
      ],
      "name": "verifyIdentity",
      "outputs": [],
      "stateMutability": "nonpayable",
      "type": "function"
    },
    {
      "inputs": [
        {
          "internalType": "address",
          "name": "",
          "type": "address"
        }
      ],
      "name": "walletToGithub",
      "outputs": [
        {
          "internalType": "string",
          "name": "",
          "type": "string"
        }
      ],
      "stateMutability": "view",
      "type": "function"
    }
  ],
  "bytecode": "0x60a060405260016009553480156200001657600080fd5b5060405162001c5f38038062001c5f8339810160408190526200003991620000ce565b33806200006057604051631e4fbdf760e01b81526000600482015260240160405180910390fd5b6200006b816200007e565b506001600160a01b031660805262000100565b600080546001600160a01b038381166001600160a01b0319831681178455604051919092169283917f8be0079c531659141344cd1fd0a4f28419497f9722a3daafe3b4186f6b6457e09190a35050565b600060208284031215620000e157600080fd5b81516001600160a01b0381168114620000f957600080fd5b9392505050565b608051611b2e62000131600039600081816101f70152818161061a0152818161080601526109f40152611b2e6000f3fe608060405234801561001057600080fd5b506004361061014d5760003560e01c806384474314116100c3578063b5b90fd91161007c578063b5b90fd914610336578063d884c1c114610349578063dc10a65214610379578063dc2f87441461039c578063e0559841146103c0578063f2fde38b146103e057600080fd5b8063844743141461029f5780638da5cb5b146102a85780638e357413146102b95780639d59ddd6146102cc578063a795983b146102ef578063aa83699a1461030257600080fd5b80633e413bee116101155780633e413bee146101f257806340f1530e146102315780634b8a1041146102515780635785c18c146102645780636262306814610277578063715018a61461029757600080fd5b806306641f7e14610152578063134158391461016957806335023d581461017e57806336373513146101bc5780633b1558d8146101df575b600080fd5b6004545b6040519081526020015b60405180910390f35b61017c6101773660046113b8565b6103f3565b005b6101ac61018c366004611420565b600560209081526000928352604080842090915290825290205460ff1681565b6040519015158152602001610160565b6101ac6101ca36600461144c565b60076020526000908152604090205460ff1681565b61017c6101ed36600461146e565b610758565b6102197f000000000000000000000000000000000000000000000000000000000000000081565b6040516001600160a01b039091168152602001610160565b61015661023f36600461144c565b60066020526000908152604090205481565b61017c61025f366004611487565b6107dc565b61017c61027236600461146e565b6109d2565b61028a61028536600461144c565b610b00565b6040516101609190611538565b61017c610b9a565b61015660095481565b6000546001600160a01b0316610219565b61017c6102c736600461146e565b610bae565b6101ac6102da36600461144c565b60036020526000908152604090205460ff1681565b61017c6102fd36600461154b565b610bbb565b6102196103103660046115cd565b80516020818301810180516002825292820191909301209152546001600160a01b031681565b61017c61034436600461144c565b610e2e565b6101ac61035736600461144c565b6009546001600160a01b03909116600090815260066020526040902054101590565b61038c61038736600461144c565b610ef6565b604051610160949392919061167e565b6103af6103aa36600461146e565b610fd7565b6040516101609594939291906116e7565b6101566103ce36600461144c565b60086020526000908152604090205481565b61017c6103ee36600461144c565b6110af565b600454831061043a5760405162461bcd60e51b815260206004820152600e60248201526d496e76616c696420626f756e747960901b60448201526064015b60405180910390fd5b60006004848154811061044f5761044f611727565b60009182526020909120600490910201600281015490915060ff166104aa5760405162461bcd60e51b8152602060048201526011602482015270426f756e7479206e6f742061637469766560781b6044820152606401610431565b600084815260056020908152604080832033845290915290205460ff16156105065760405162461bcd60e51b815260206004820152600f60248201526e105b1c9958591e4818db185a5b5959608a1b6044820152606401610431565b3360009081526003602052604090205460ff1661055d5760405162461bcd60e51b81526020600482015260156024820152741259195b9d1a5d1e481b9bdd081d995c9a599a5959605a1b6044820152606401610431565b6000838360405161056f92919061173d565b60405180910390209050816003015481146105bc5760405162461bcd60e51b815260206004820152600d60248201526c24b73b30b634b210383937b7b360991b6044820152606401610431565b60008581526005602090815260408083203384528252808320805460ff19166001179055600690915281208054916105f383611763565b9091555050600182015460405163a9059cbb60e01b815233600482015260248101919091527f00000000000000000000000000000000000000000000000000000000000000006001600160a01b03169063a9059cbb906044016020604051808303816000875af115801561066b573d6000803e3d6000fd5b505050506040513d601f19601f8201168201806040525081019061068f919061177c565b6106ab5760405162461bcd60e51b81526004016104319061179e565b336001600160a01b0316857f23c972d46b3251ae358ad69fb3761ef8f5c38c5131502ed9e9bde9b129da921584600101546040516106eb91815260200190565b60405180910390a3600954336000908152600660205260409020541061075157336000818152600660209081526040918290205491519182527f2d0913bb98a016e19a9d563ac7f1bf5eff400db92be189255841345e4e0a703391015b60405180910390a25b5050505050565b6107606110ed565b60045481106107a25760405162461bcd60e51b815260206004820152600e60248201526d496e76616c696420626f756e747960901b6044820152606401610431565b6000600482815481106107b7576107b7611727565b60009182526020909120600490910201600201805460ff191691151591909117905550565b6107e46110ed565b6040516323b872dd60e01b8152336004820152306024820152604481018490527f00000000000000000000000000000000000000000000000000000000000000006001600160a01b0316906323b872dd906064016020604051808303816000875af1158015610857573d6000803e3d6000fd5b505050506040513d601f19601f8201168201806040525081019061087b919061177c565b6108975760405162461bcd60e51b81526004016104319061179e565b6040805160c06020601f8801819004028201810190925260a08101868152600492829190899089908190850183828082843760009201919091525050509082525060208101869052600160408201526060018460028111156108fb576108fb6116af565b8152602090810184905282546001810184556000938452922081519192600402019081906109299082611850565b506020820151600182015560408201516002808301805492151560ff19841681178255606086015193919261ff001990911661ffff19909216919091179061010090849081111561097c5761097c6116af565b02179055506080919091015160039091015560045461099d90600190611910565b7fc695b8951e8bc2aa0fe189d4878f97a5a5c4f304b19f3110ad7f9debcf976cb086868686604051610748949392919061194c565b6040516323b872dd60e01b8152336004820152306024820152604481018290527f00000000000000000000000000000000000000000000000000000000000000006001600160a01b0316906323b872dd906064016020604051808303816000875af1158015610a45573d6000803e3d6000fd5b505050506040513d601f19601f82011682018060405250810190610a69919061177c565b610a855760405162461bcd60e51b81526004016104319061179e565b3360009081526008602052604081208054839290610aa490849061197e565b90915550503360008181526007602052604090819020805460ff19166001179055517f6ca554966e872c4c9a5e986fc5f312a5c6212f83097be310b707c98ac00b403490610af59084815260200190565b60405180910390a250565b60016020526000908152604090208054610b19906117c7565b80601f0160208091040260200160405190810160405280929190818152602001828054610b45906117c7565b8015610b925780601f10610b6757610100808354040283529160200191610b92565b820191906000526020600020905b815481529060010190602001808311610b7557829003601f168201915b505050505081565b610ba26110ed565b610bac600061111a565b565b610bb66110ed565b600955565b3360009081526001602052604090208054610bd5906117c7565b159050610c195760405162461bcd60e51b8152602060048201526012602482015271105b1c9958591e481c9959da5cdd195c995960721b6044820152606401610431565b60006001600160a01b031660028585604051610c3692919061173d565b908152604051908190036020019020546001600160a01b031614610c945760405162461bcd60e51b815260206004820152601560248201527411da5d121d5888185b1c9958591e481b1a5b9ad959605a1b6044820152606401610431565b60008484604051602001610ca992919061173d565b6040516020818303038152906040528051906020012090506000610cfa827f19457468657265756d205369676e6564204d6573736167653a0a3332000000006000908152601c91909152603c902090565b90506000610d4085858080601f016020809104026020016040519081016040528093929190818152602001838380828437600092019190915250869392505061116a9050565b90506001600160a01b0381163314610d8e5760405162461bcd60e51b8152602060048201526011602482015270496e76616c6964207369676e617475726560781b6044820152606401610431565b336000908152600160205260409020610da8878983611991565b503360028888604051610dbc92919061173d565b90815260405190819003602001812080546001600160a01b03939093166001600160a01b03199093169290921790915533907f9b6805eb7a1bee8a797c79c5f2a39a182f3d37f8b8cce5ec42371000c8115dfd90610e1d908a908a90611a51565b60405180910390a250505050505050565b610e366110ed565b6001600160a01b03811660009081526001602052604081208054610e59906117c7565b905011610e995760405162461bcd60e51b815260206004820152600e60248201526d139bdd081c9959da5cdd195c995960921b6044820152606401610431565b6001600160a01b0381166000818152600360209081526040808320805460ff191660019081179091559091529081902090517f27979044fa1bedb9539c4eb3e2fe35b0b0c22a1820437f356977d13013422f8d91610af591611a6d565b6001600160a01b0381166000908152600160209081526040808320600383528184205460069093529083205460095482546060959485948594909360ff909216929091821015908490610f48906117c7565b80601f0160208091040260200160405190810160405280929190818152602001828054610f74906117c7565b8015610fc15780601f10610f9657610100808354040283529160200191610fc1565b820191906000526020600020905b815481529060010190602001808311610fa457829003601f168201915b5050505050935093509350935093509193509193565b60048181548110610fe757600080fd5b906000526020600020906004020160009150905080600001805461100a906117c7565b80601f0160208091040260200160405190810160405280929190818152602001828054611036906117c7565b80156110835780601f1061105857610100808354040283529160200191611083565b820191906000526020600020905b81548152906001019060200180831161106657829003601f168201915b505050600184015460028501546003909501549394909360ff8083169450610100909204909116915085565b6110b76110ed565b6001600160a01b0381166110e157604051631e4fbdf760e01b815260006004820152602401610431565b6110ea8161111a565b50565b6000546001600160a01b03163314610bac5760405163118cdaa760e01b8152336004820152602401610431565b600080546001600160a01b038381166001600160a01b0319831681178455604051919092169283917f8be0079c531659141344cd1fd0a4f28419497f9722a3daafe3b4186f6b6457e09190a35050565b60008060008061117a8686611196565b92509250925061118a82826111e3565b50909150505b92915050565b600080600083516041036111d05760208401516040850151606086015160001a6111c2888285856112a0565b9550955095505050506111dc565b50508151600091506002905b9250925092565b60008260038111156111f7576111f76116af565b03611200575050565b6001826003811115611214576112146116af565b036112325760405163f645eedf60e01b815260040160405180910390fd5b6002826003811115611246576112466116af565b036112675760405163fce698f760e01b815260048101829052602401610431565b600382600381111561127b5761127b6116af565b0361129c576040516335e2f38360e21b815260048101829052602401610431565b5050565b600080807f7fffffffffffffffffffffffffffffff5d576e7357a4501ddfe92f46681b20a08411156112db5750600091506003905082611365565b604080516000808252602082018084528a905260ff891692820192909252606081018790526080810186905260019060a0016020604051602081039080840390855afa15801561132f573d6000803e3d6000fd5b5050604051601f1901519150506001600160a01b03811661135b57506000925060019150829050611365565b9250600091508190505b9450945094915050565b60008083601f84011261138157600080fd5b50813567ffffffffffffffff81111561139957600080fd5b6020830191508360208285010111156113b157600080fd5b9250929050565b6000806000604084860312156113cd57600080fd5b83359250602084013567ffffffffffffffff8111156113eb57600080fd5b6113f78682870161136f565b9497909650939450505050565b80356001600160a01b038116811461141b57600080fd5b919050565b6000806040838503121561143357600080fd5b8235915061144360208401611404565b90509250929050565b60006020828403121561145e57600080fd5b61146782611404565b9392505050565b60006020828403121561148057600080fd5b5035919050565b60008060008060006080868803121561149f57600080fd5b853567ffffffffffffffff8111156114b657600080fd5b6114c28882890161136f565b909650945050602086013592506040860135600381106114e157600080fd5b949793965091946060013592915050565b6000815180845260005b81811015611518576020818501810151868301820152016114fc565b506000602082860101526020601f19601f83011685010191505092915050565b60208152600061146760208301846114f2565b6000806000806040858703121561156157600080fd5b843567ffffffffffffffff8082111561157957600080fd5b6115858883890161136f565b9096509450602087013591508082111561159e57600080fd5b506115ab8782880161136f565b95989497509550505050565b634e487b7160e01b600052604160045260246000fd5b6000602082840312156115df57600080fd5b813567ffffffffffffffff808211156115f757600080fd5b818401915084601f83011261160b57600080fd5b81358181111561161d5761161d6115b7565b604051601f8201601f19908116603f01168101908382118183101715611645576116456115b7565b8160405282815287602084870101111561165e57600080fd5b826020860160208301376000928101602001929092525095945050505050565b60808152600061169160808301876114f2565b94151560208301525060408101929092521515606090910152919050565b634e487b7160e01b600052602160045260246000fd5b600381106116e357634e487b7160e01b600052602160045260246000fd5b9052565b60a0815260006116fa60a08301886114f2565b9050856020830152841515604083015261171760608301856116c5565b8260808301529695505050505050565b634e487b7160e01b600052603260045260246000fd5b8183823760009101908152919050565b634e487b7160e01b600052601160045260246000fd5b6000600182016117755761177561174d565b5060010190565b60006020828403121561178e57600080fd5b8151801515811461146757600080fd5b6020808252600f908201526e151c985b9cd9995c8819985a5b1959608a1b604082015260600190565b600181811c908216806117db57607f821691505b6020821081036117fb57634e487b7160e01b600052602260045260246000fd5b50919050565b601f82111561184b57600081815260208120601f850160051c810160208610156118285750805b601f850160051c820191505b8181101561184757828155600101611834565b5050505b505050565b815167ffffffffffffffff81111561186a5761186a6115b7565b61187e8161187884546117c7565b84611801565b602080601f8311600181146118b3576000841561189b5750858301515b600019600386901b1c1916600185901b178555611847565b600085815260208120601f198616915b828110156118e2578886015182559484019460019091019084016118c3565b50858210156119005787850151600019600388901b60f8161c191681555b5050505050600190811b01905550565b818103818111156111905761119061174d565b81835281816020850137506000828201602090810191909152601f909101601f19169091010190565b606081526000611960606083018688611923565b905083602083015261197560408301846116c5565b95945050505050565b808201808211156111905761119061174d565b67ffffffffffffffff8311156119a9576119a96115b7565b6119bd836119b783546117c7565b83611801565b6000601f8411600181146119f157600085156119d95750838201355b600019600387901b1c1916600186901b178355610751565b600083815260209020601f19861690835b82811015611a225786850135825560209485019460019092019101611a02565b5086821015611a3f5760001960f88860031b161c19848701351681555b505060018560011b0183555050505050565b602081526000611a65602083018486611923565b949350505050565b6000602080835260008454611a81816117c7565b80848701526040600180841660008114611aa25760018114611abc57611aea565b60ff1985168984015283151560051b890183019550611aea565b896000528660002060005b85811015611ae25781548b8201860152908301908801611ac7565b8a0184019650505b50939897505050505050505056fea264697066735822122041eb86642a122539e6b976d92b3f9a90287d4073330e5c4e675660955a0e10ce64736f6c63430008140033",
  "linkReferences": {},
  "deployedLinkReferences": {}
}